:100000000C942A000C9447000C9447000C94470071
:100010000C9447000C9447000C9447000C94470044
:100020000C9447000C9447000C9447000C94470034
:100030000C9447000C9447000C9447000C94470024
:100040000C9447000C9447000C9447000C94470014
:100050000C94470011241FBECFE5D8E0DEBFCDBF12
:1000600010E0A0E6B0E0E0E8FAE002C005900D92F2
:10007000A438B107D9F710E0A4E8B0E001C01D92A0
:10008000AC38B107E1F70E94D4030C943E050C9400
:100090000000823451F1833420F4813409F07BC0B4
:1000A00007C0833409F43EC0843409F074C057C0DB
:1000B000413069F42AB381E090E0AC0102C0440F02
:1000C000551F6A95E2F7BA01622B6ABB08952AB3FD
:1000D00081E090E0AC0102C0440F551F6A95E2F741
:1000E000BA01609562236ABB0895413069F427B371
:1000F00081E090E0AC0102C0440F551F6A95E2F721
:10010000BA01622B67BB089527B381E090E0AC0190
:1001100002C0440F551F6A95E2F7BA016095622349
:1001200067BB0895413069F424B381E090E0AC01ED
:1001300002C0440F551F6A95E2F7BA01622B64BBF7
:10014000089524B381E090E0AC0102C0440F551F34
:100150006A95E2F7BA016095622364BB0895413065
:1001600069F421B381E090E0AC0102C0440F551F57
:100170006A95E2F7BA01622B61BB089521B381E071
:1001800090E0AC0102C0440F551F6A95E2F7BA0136
:100190006095622361BB0895823451F1833420F469
:1001A000813409F07BC007C0833409F43EC0843435
:1001B00009F074C057C0413069F42BB381E090E07E
:1001C000AC0102C0440F551F6A95E2F7BA01622BD9
:1001D0006BBB08952BB381E090E0AC0102C0440FEB
:1001E000551F6A95E2F7BA01609562236BBB0895CB
:1001F000413069F428B381E090E0AC0102C0440FC3
:10020000551F6A95E2F7BA01622B68BB089528B3BF
:1002100081E090E0AC0102C0440F551F6A95E2F7FF
:10022000BA016095622368BB0895413069F425B333
:1002300081E090E0AC0102C0440F551F6A95E2F7DF
:10024000BA01622B65BB089525B381E090E0AC0153
:1002500002C0440F551F6A95E2F7BA016095622308
:1002600065BB0895413069F422B381E090E0AC01B0
:1002700002C0440F551F6A95E2F7BA01622B62BBB8
:10028000089522B381E090E0AC0102C0440F551FF5
:100290006A95E2F7BA016095622362BB08958234E1
:1002A000F1F0833420F4813409F04FC006C0833468
:1002B00041F1843409F049C036C029B381E090E0AF
:1002C000062E02C0880F991F0A94E2F730E08223BD
:1002D000932302C0959587956A95E2F7089526B312
:1002E00081E090E0062E02C0880F991F0A94E2F781
:1002F00030E08223932302C0959587956A95E2F7B3
:10030000089523B381E090E0062E02C0880F991F64
:100310000A94E2F730E08223932302C095958795F3
:100320006A95E2F7089520B381E090E0062E02C0BE
:10033000880F991F0A94E2F730E08223932302C0CA
:10034000959587956A95E2F7089580E0089582343F
:10035000B9F0833418F48134C9F505C08334E9F069
:100360008434A1F527C02BB381E090E0AC0102C03A
:10037000440F551F6A95E2F7BA0162276BBB0895D7
:1003800028B381E090E0AC0102C0440F551F6A958C
:10039000E2F7BA01622768BB089525B381E090E0D7
:1003A000AC0102C0440F551F6A95E2F7BA016227FB
:1003B00065BB089522B381E090E0AC0102C0440F18
:1003C000551F6A95E2F7BA01622762BB089582342D
:1003D00061F0833418F4813469F405C0833439F052
:1003E000843441F406C06ABB089567BB089564BBBA
:1003F000089561BB0895823461F0833418F4813428
:1004000069F405C0833439F0843441F406C06BBB11
:10041000089568BB089565BB089562BB0895823452
:1004200061F0833418F4813471F405C0833439F0F9
:10043000843449F406C089B3089586B3089583B31C
:10044000089580B3089580E00895823451F1833493
:1004500020F4813409F07BC007C0833409F43EC026
:10046000843409F074C057C0413069F42BB381E083
:1004700090E0AC0102C0440F551F6A95E2F7BA0143
:10048000622B6BBB08952BB381E090E0AC0102C0FE
:10049000440F551F6A95E2F7BA01609562236BBB62
:1004A0000895413069F428B381E090E0AC0102C0C6
:1004B000440F551F6A95E2F7BA01622B68BB089595
:1004C00028B381E090E0AC0102C0440F551F6A954B
:1004D000E2F7BA016095622368BB0895413069F480
:1004E00025B381E090E0AC0102C0440F551F6A952E
:1004F000E2F7BA01622B65BB089525B381E090E075
:10050000AC0102C0440F551F6A95E2F7BA0160952D
:10051000622365BB0895413069F422B381E090E025
:10052000AC0102C0440F551F6A95E2F7BA01622B75
:1005300062BB089522B381E090E0AC0102C0440F99
:10054000551F6A95E2F7BA016095622362BB089570
:100550006F70823481F0833418F48134F1F405C073
:10056000833479F08434C9F412C08BB3807F8BBBA1
:100570008BB3862B8BBB88B3807F88BB88B3862BDD
:1005800088BB85B3807F85BB85B3862B85BB82B353
:10059000807F82BB82B3682B62BB08956295607FC7
:1005A000823481F0833418F48134F1F405C083344B
:1005B00079F08434C9F412C08BB38F708BBB8BB3CA
:1005C000862B8BBB88B38F7088BB88B3862B88BB88
:1005D00085B38F7085BB85B3862B85BB82B38F7047
:1005E00082BB82B3682B62BB089582E460E041E085
:1005F0000E94CC008FE99FE00197F1F700C0000056
:1006000082E460E040E00E94CC008FE99FE0019727
:10061000F1F700C000000895682F81E40E94FB01FB
:1006200082E461E040E00E94CC000E94F5028FEC81
:1006300097E00197F1F700C0000008958FEF93EC69
:10064000A9E081509040A040E1F700C0000081E4A3
:1006500060E041E00E94490081E461E041E00E94E5
:10066000490081E462E041E00E94490081E463E0E6
:1006700041E00E94490081E464E041E00E944900B9
:1006800081E465E041E00E94490081E466E041E0E8
:100690000E94490081E467E041E00E94490082E451
:1006A00060E041E00E94490082E462E041E00E9493
:1006B000490082E461E041E00E94490082E462E096
:1006C00040E00E94CC0088E30E940C03AFECB7E04E
:1006D0001197F1F700C000008CE00E940C038FEC32
:1006E00097E00197F1F700C0000081E00E940C0341
:1006F000AFE1BEE41197F1F700C0000086E00E9470
:100700000C038FEC97E00197F1F700C0000008950B
:10071000682F81E40E94FB0182E461E041E00E94D5
:10072000CC000E94F5028FEC97E00197F1F700C032
:1007300000000895CF93DF93EC018881882331F086
:1007400021960E94880389918823D9F7DF91CF9160
:10075000089581E00E940C038FE19EE40197F1F778
:1007600000C000000895282F2150223070F461311C
:1007700070F4662371F0813019F4962F91580AC0F5
:10078000823041F4962F915405C090E803C090E860
:1007900001C090E8892F0E940C038FEC97E001972D
:1007A000F1F700C0000008950E941E0384E467E092
:1007B00041E00E944900C2ECD2E80DE710E00F2EA4
:1007C000F0E8CF2EF4E8DF2EFEE1EF2EF0E0FF2E72
:1007D000F02D0F2EF3E72F2EF0E03F2EF02D0F2EF1
:1007E000F0E68F2EF0E09F2EF02D0F2EFAE0AF2EC8
:1007F000BB24F02D0F2EFBE66F2EF0E07F2EF02DA8
:100800000F2EFEE64F2EF0E05F2EF02D1FBC88B7B6
:10081000806288BF84E467E041E00E94CC0080E50C
:100820008A95F1F784E467E040E00E94CC00AFE8ED
:10083000B1E01197F1F700C00000CEBD08B605FE8B
:10084000FDCF86B597B590938B0080938A00DEBD6F
:1008500088B7806288BF08B605FEFDCF86B597B51C
:1008600090938500809384001DBC1CBC1EBC8091AD
:1008700084009091850020918A0030918B00281788
:10088000390708F085C080918400909185002091FF
:100890008A0030918B00821B930B90938900809388
:1008A0008800609188007091890080E090E02CE0E1
:1008B00034E940E050E00E94CE04A70196010E9476
:1008C000010530938700209386008FEF93ECA9E019
:1008D00081509040A040E1F700C000008091860068
:1008E000909187008A309105A0F4C4010E949A0378
:1008F0008091860090918700B5010E94ED04805D93
:100900000E948803C3010E949A03C2010E949A03B5
:100910003AC080918600909187008436910538F521
:1009200080918600909187008035910500F5C40183
:100930000E949A038091860090918700B5010E94E1
:10094000ED04862F805D0E9488038091860090913F
:100950008700B5010E94ED04805D0E948803C301F9
:100960000E949A0381E790E00E949A030CC0809154
:100970008600909187008035910528F00E94A90398
:10098000C1010E949A0381E061E00E94B3033ECF5F
:100990000E94A903C8010E949A0338CF629FD00128
:1009A000739FF001829FE00DF11D649FE00DF11D2A
:1009B000929FF00D839FF00D749FF00D659FF00DD9
:1009C0009927729FB00DE11DF91F639FB00DE11DC6
:1009D000F91FBD01CF0111240895AA1BBB1B51E1D2
:1009E00007C0AA1FBB1FA617B70710F0A61BB70B9F
:1009F000881F991F5A95A9F780959095BC01CD0144
:100A0000089597FB092E05260ED057FD04D014D06B
:100A10000AD0001C38F450954095309521953F4FF1
:100A20004F4F5F4F0895F6F79095809570956195BB
:100A30007F4F8F4F9F4F0895A1E21A2EAA1BBB1B19
:100A4000FD010DC0AA1FBB1FEE1FFF1FA217B3079A
:100A5000E407F50720F0A21BB30BE40BF50B661FB0
:100A6000771F881F991F1A9469F760957095809574
:100A700090959B01AC01BD01CF010895F894FFCF83
:100A800044697374616E6365203A00636D002020D1
:100A90000020004E6F206F626A6563740077726F8A
:040AA0006E6700007D
:00000001FF
